:020000020000FC
:020000005AC0E4
:02000400FAC040
:02001400CAC060
:0200480010C1E5
:10005400DCC0FF0FFF0FFF0F1F3F1F1F1FFFFF0F0E
:10006400FFFF00010202040507090D1219223040A6
:100074005B78FF0F0000FF0F0000FF0F0000FF0F71
:100084000000010000000100000001000000010068
:100094000000FF0FFF0FFF0F0000FF0F0100FF0F15
:1000A400000F010001000100000F0100FF0F01001B
:1000B40000000027E0E0F1E06AE101936A95E9F7C6
:1000C4006FEF6DBF68E06EBFF0E0409A389A419AD6
:1000D400399A429A3A9A52985A9A409864E06093AC
:1000E4006D0064E060936800C0E8D0E06D2F6C0F91
:1000F40060936600329A75D0AA58B04008F4DC0FB9
:10010400C695A1F78FEF9FEFDA95C3E0D093660011
:1001140068D0AA58B04030F4662777276A1B7B0B57
:10012400A62FB72FA817B90718F48A2F9B2FED2FE6
:10013400D395CA9559F7E09366000093680000933D
:100144006D00409A52985A9A62E06093690061E0A7
:100154006DBB60EC60937A0060E06093C50060E181
:100164006093C40062E06093C00060E96093C100E2
:1001740066E06093C200219A229A62EA609380004A
:1001840061E16093810060E06093870064EB6093B9
:1001940086002098289A24982C9A20EC10E1A02F0D
:1001A400B02F78947FC04A9908C0009385000093CB
:1001B400840061E06093810013C000938100772381
:1001C40079F08F939F938091840090918500A81774
:1001D400B90710F0A82FB92F319A7A959F918F9172
:1001E4001895AFEFBFEF70E14A9BFECF7894772369
:1001F400F1F7F8940895DF93DCECD0937A000DBB0B
:10020400D0E8D0930F01DF911895DF93DFB7DF9328
:10021400D0910F0188944A990894D79530F0D093DF
:100224000F01DBECD0937A001AC0CF9314FF04C003
:10023400DE3080F41D2F0EC0EF93E6E5E10FE4916C
:10024400ED23C0E0D1E0C10FE883EF911D3009F444
:1002540020641061CF91D1E0DCBBD1E0DDBBDF9144
:10026400DFBFDF911895CF93DF93DFB7DF93D09192
:10027400C60014FF04C0DE3080F41D2F0EC0EF93BF
:10028400E6E5E10FE491ED23C0E0D1E0C10FE8839E
:10029400EF911D3009F420641061DF91DFBFDF911D
:1002A400CF91189566B360FFFDCF66BBA09388001D
:1002B400B0938A006AE0A0910001B0910101C0915D
:1002C4001001D0911101CA17DB0768F0CA1BDB0BC0
:1002D400C617D00710F0CC27DD2771E02727A61713
:1002E400B00708F4272BC60FD01FC0931001D0937A
:1002F4001101A0910201B0910301C0911201D091AA
:100304001301CA17DB0768F0CA1BDB0BC617D0073B
:1003140010F0CC27DD2772E02727A617B00708F4D2
:10032400272BC60FD01FC0931201D0931301A091A5
:100334000401B0910501C0911401D0911501CA17AF
:10034400DB0768F0CA1BDB0BC617D00710F0CC27FD
:10035400DD2774E02727A617B00708F4272BC60F5C
:10036400D01FC0931401D093150126FF0CC02F7B1E
:10037400009318010093190150910D01550F550F69
:10038400E7E7E50F4491A0910B01B0910C01C091F6
:100394001801D09119018091160190911701609173
:1003A400060175E0361768F0332783FBE0F9E82788
:1003B4009795879527FB97F9E0FB27F9277C80FD24
:1003C40028633395CA17DB0768F0CC27DD27E6E7F7
:1003D400E50FE4914E0F403128F0E2E05E27E7E7B5
:1003E400E50F4491E9917A95E9F68093160190938B
:1003F4001701C0931801D093190170910701722B52
:10040400672F660F62957623E6E6E40F649186E62D
:10041400A62FE0910801E4FB16F0E80FA49170FF09
:10042400AA27962FE0910901E4FB16F0E80F9491B6
:1004340071FF9927B62FE0910A01E4FB16F0E80F4B
:10044400B49172FFBB271C9B04C09695A90FB90FEA
:0A04540029CFB695AB0FB90F25CFE5
:00000001FF
