:020000020000FC
:020000005AC0E4
:020004009AC0A0
:02004800B5C041
:100054007CC0FF0FFF0FFF0F1F3F1F1F1FFFFF0F6E
:10006400FFFF0001020305070A0D13192430445B46
:1000740081AAFF0F0000FF0F0000FF0F0000FF0F19
:100084000000010000000100000001000000010068
:100094000000FF0FFF0FFF0F0000FF0F0100FF0F15
:1000A400000F010001000100000F0100FF0F01001B
:1000B40000000027E0E0F1E06AE101936A95E9F7C6
:1000C4006FEF6DBF68E06EBFF0E060E860936100C1
:1000D40061E06093610052985A9A62E0609369000B
:1000E40061E06DBB60EC60937A0060E06093C500F2
:1000F40060E16093C40062E06093C00060E96093D3
:10010400C10066E06093C200219A229A62EA609379
:10011400800069E16093810061E06093870069E693
:1001240060938600389A399A3A9A20EC10E1A02F0D
:10013400B02F78945CC04098DCECD0937A000DBB6F
:10014400D0E8D0930F0141981895DF93DFB7DF9380
:10015400D0910F0188944A990894D795319A30F038
:10016400D0930F01DBECD0937A001EC04298CF935A
:1001740014FF04C0DE3080F41D2F0EC0EF93E6E5BB
:10018400E10FE491ED23C0E0D1E0C10FE883EF91EA
:100194001D3009F420641061CF91429AD1E0DCBB98
:1001A400D1E0DDBB419A409ADF91DFBFDF91189522
:1001B400CF93DF93DFB7DF93D091C60014FF04C061
:1001C400DE3080F41D2F0EC0EF93E6E5E10FE491DD
:1001D400ED23C0E0D1E0C10FE883EF911D3009F4B5
:1001E40020641061DF91DFBFDF91CF91189566B372
:1001F40060FFFDCF66BBA0938800B0938A006AE0DD
:10020400A0910001B0910101C0911001D0911101A0
:10021400CA17DB0768F0CA1BDB0BC617D00710F040
:10022400CC27DD2771E02727A617B00708F4272B72
:10023400C60FD01FC0931001D0931101A0910201E9
:10024400B0910301C0911201D0911301CA17DB07C9
:1002540068F0CA1BDB0BC617D00710F0CC27DD27CC
:1002640072E02727A617B00708F4272BC60FD01F64
:10027400C0931201D0931301A0910401B091050120
:10028400C0911401D0911501CA17DB0768F0CA1B8D
:10029400DB0BC617D00710F0CC27DD2774E0272727
:1002A400A617B00708F4272BC60FD01FC09314015C
:1002B400D093150126FF0CC02F7B009318010093E7
:1002C400190150910D01550F550FE7E7E50F4491C2
:1002D400A0910B01B0910C01C0911801D0911901AA
:1002E40080911601909117016091060175E036170F
:1002F40068F0332783FBE0F9E8279795879527FB78
:1003040097F9E0FB27F9277C80FD28633395CA170A
:10031400DB0768F0CC27DD27E6E7E50FE4914E0F15
:10032400403128F0E2E05E27E7E7E50F4491E991E8
:100334007A95E9F68093160190931701C0931801FA
:10034400D093190170910701722B672F660F629584
:10035400762386E6E6E6E40F6491A62FE091080191
:10036400E4FB16F0E80FA49170FFAA27962FE09102
:100374000901E4FB16F0E80F949171FF9927B62F59
:10038400E0910A01E4FB16F0E80FB49172FFBB2779
:080394009695A90FB90F2BCFBC
:00000001FF
