:020000020000FC
:060000003AC0ACC08AC04A
:10001400A9C0FF0FFF0FFF0F1F3F1F1F1FFFFF0F81
:10002400FFFF00010102030406080B0E151B273411
:100034004A61FF0F0000FF0F0000FF0F0000FF0FD9
:1000440000000100000001000000010000000100A8
:100054000000FF0FFF0FFF0F0000FF0F0100FF0F55
:10006400000F010001000100000F0100FF0F01005B
:1000740000000027E0E4F0E06AE101936A95E9F703
:100084006FE56DBF60E06EBFF0E468ED6CBF06BF66
:100094000A981A9A64E060BB61E062BBC0E8D0E0F1
:1000A4006D2F6C0F69BF4ED0AA58B04008F4DC0F16
:1000B400C695B1F78FEF9FEFDA95C3E0D9BF42D071
:1000C400AA58B04030F4662777276A1B7B0BA62F0B
:1000D400B72FA817B90718F48A2F9B2FED2FD395A4
:1000E400CA9561F7E9BF02BB00BB62E065BB61E092
:1000F40063BB60EC6DBB089A099A62EA6EBD61E16C
:100104006DBD60E063BD61E962BD20EC10E1A02F2C
:10011400B02F789452C0029905C009BD08BD61E0B2
:100124006DBD0FC00DBD772361F08F939F9388B58C
:1001340099B5A817B90710F0A82FB92F7A959F91F0
:100144008F911895AFEFBFEF70E1029BFECF7894CB
:100154007723F1F7F8940895DCECDDBB03BBD0E81A
:10016400DFA91895DF93DFB7DF93DFA188940299A5
:100174000894D79520F0DFA9DBECDDBB1AC0CF9340
:1001840014FF04C0DE3080F41D2F0EC0EF93E6E1AF
:10019400E10FE081ED23C0E4D0E0C10FE883EF91EB
:1001A4001D3009F420641061CF91D1E0D4BBD1E0BB
:1001B400D3BBDF91DFBFDF9118956AB560FFFDCF38
:1001C4006ABDA6BDB4BD68E0A0A1B1A1C0A3D1A37E
:1001D400CA17DB0768F0CA1BDB0BC617D00710F081
:1001E400CC27DD2771E02727A617B00708F4272BB3
:1001F400C60FD01FC0ABD1ABA2A1B3A1C2A3D3A3DE
:10020400CA17DB0768F0CA1BDB0BC617D00710F050
:10021400CC27DD2772E02727A617B00708F4272B81
:10022400C60FD01FC2ABD3ABA4A1B5A1C4A3D5A3A1
:10023400CA17DB0768F0CA1BDB0BC617D00710F020
:10024400CC27DD2774E02727A617B00708F4272B4F
:10025400C60FD01FC4ABD5AB26FF09C02F7B08AB9C
:1002640009AB5DA1550F550FE7E3E50F4081ABA145
:10027400BCA1C8A3D9A386A397A366A174E036172B
:1002840068F0332783FBE0F9E8279795879527FBE8
:1002940097F9E0FB27F9277C80FD28633395CA177B
:1002A400DB0768F0CC27DD27E6E3E50FE0814E0F9E
:1002B400403128F0E2E05E27E7E3E50F4081E99171
:1002C4007A95E9F686AB97ABC8ABD9AB77A1722B1D
:1002D400672F660F62957623E6E2E40F608186E27B
:1002E400A62FE8A1E4FB16F0E80FA08170FFAA276F
:1002F400962FE9A1E4FB16F0E80F908171FF99278E
:10030400B62FEAA1E4FB16F0E80FB08172FFBB2719
:080314009695A90FB90F51CF16
:00000001FF
