:020000020000FC
:1000000031C054C0FF0FFF0FFF0F1F3F1F1F1FFF07
:10001000FF0FFFFF000102030405080B0F151E2B45
:100020003C5578AAFF0F0000FF0F0000FF0F0000F3
:10003000FF0F0000010000000100000001000000AF
:1000400001000000FF0FFF0FFF0F0000FF0F010076
:10005000FF0F000F010001000100000F0100FF0F62
:10006000010000000027E0E4F0E06AE101936A95F6
:10007000E9F76FE56DBF60E06EBFF0E468ED6CBF5F
:1000800006BF0A981A9AA898A99A989A089A099A5B
:1000900062EA6EBD69E16DBD61E063BD63E262BDB0
:1000A00020EC10E1A02FB02F789428C0CF93DF93DD
:1000B000DFB7DF93C2E4D0E8C150F1F7CCE2029998
:1000C0000894D795C8F7CA95F1F714FF04C0D0314A
:1000D00080F41D2F0EC0EF93E4E0E10FE081ED23EB
:1000E000C0E4D0E0C10FE883EF911D3009F4206433
:1000F0001061DF91DFBFDF91CF9118956AB560FF86
:10010000FDCF6ABDA6BDB4BD68E0A0A1B1A1C0A3EA
:10011000D1A3CA17DB0768F0CA1BDB0BC617D007D1
:1001200010F0CC27DD2771E02727A617B00708F4C9
:10013000272BC60FD01FC0ABD1ABA2A1B3A1C2A3C6
:10014000D3A3CA17DB0768F0CA1BDB0BC617D0079F
:1001500010F0CC27DD2772E02727A617B00708F498
:10016000272BC60FD01FC2ABD3ABA4A1B5A1C4A38C
:10017000D5A3CA17DB0768F0CA1BDB0BC617D0076D
:1001800010F0CC27DD2774E02727A617B00708F466
:10019000272BC60FD01FC4ABD5AB26FF09C02F7BC2
:1001A00008AB09AB5DA1550F550FE5E2E50F4081A6
:1001B000ABA1BCA1C8A3D9A386A397A366A174E0F1
:1001C000361768F0332783FBE0F9E8279795879582
:1001D00027FB97F9E0FB27F9277C80FD28633395FF
:1001E000CA17DB0768F0CC27DD27E4E2E50FE081E2
:1001F0004E0F403128F0E2E05E27E5E2E50F408156
:10020000E9917A95E9F686AB97ABC8ABD9AB77A104
:10021000722B672F660F62957623E4E1E40F60810D
:1002200084E1A62FE8A1E4FB16F0E80FA08170FF9F
:10023000AA27962FE9A1E4FB16F0E80F908171FF41
:100240009927B62FEAA1E4FB16F0E80FB08172FF00
:0A025000BB279695A90FB90F51CFF7
:00000001FF
