:020000020000FC
:0200000033C00B
:100006007CC0FF0FFF0FFF0F1F3F1F1F1FFFFF0FBC
:10001600FFFF00010102030406080B0E151B27341F
:100026004A61FF0F0000FF0F0000FF0F0000FF0FE7
:1000360000000100000001000000010000000100B6
:100046000000FF0FFF0FFF0F0000FF0F0100FF0F63
:10005600000F010001000100000F0100FF0F010069
:1000660000000027E0E4F0E06AE101936A95E9F711
:100076006FE56DBF60E06EBFF0E068ED6CBF06BF78
:100086002B983B9A68E060BB62E062BBC0E8D0E0B8
:100096006D2F6C0F69BF48D0AA58B04008F4DC0F2A
:1000A600C695B1F78FEF9FEFDA95C3E0D9BF3CD085
:1000B600AA58B04030F4662777276A1B7B0BA62F19
:1000C600B72FA817B90718F48A2F9B2FED2FD395B2
:1000D600CA9561F7E9BF02BB00BB299A099A62EA91
:1000E6006EBD61E16DBD60E063BD61E962BD20EC9E
:1000F60010E1A02FB02F789421C0239905C009BD27
:1001060008BD61E06DBD0FC00DBD772361F08F9313
:100116009F9388B599B5A817B90710F0A82FB92FDE
:100126007A959F918F911895AFEFBFEF70E1239B62
:10013600FECF78947723F1F7F89408956AB560FFB7
:10014600FDCF6ABDA6BDB4BD68E0A0A1B1A1C0A3A4
:10015600D1A3CA17DB0768F0CA1BDB0BC617D0078B
:1001660010F0CC27DD2771E02727A617B00708F483
:10017600272BC60FD01FC0ABD1ABA2A1B3A1C2A380
:10018600D3A3CA17DB0768F0CA1BDB0BC617D00759
:1001960010F0CC27DD2772E02727A617B00708F452
:1001A600272BC60FD01FC2ABD3ABA4A1B5A1C4A346
:1001B600D5A3CA17DB0768F0CA1BDB0BC617D00727
:1001C60010F0CC27DD2774E02727A617B00708F420
:1001D600272BC60FD01FC4ABD5AB26FF09C02F7B7C
:1001E60008AB09AB5DA1550F550FE9E2E50F40815C
:1001F600ABA1BCA1C8A3D9A386A397A366A174E0AB
:10020600361768F0332783FBE0F9E827979587953B
:1002160027FB97F9E0FB27F9277C80FD28633395B8
:10022600CA17DB0768F0CC27DD27E8E2E50FE08197
:100236004E0F403128F0E2E05E27E9E2E50F40810B
:10024600E9917A95E9F686AB97ABC8ABD9AB77A1BE
:10025600722B672F660F62957623E8E1E40F6081C3
:1002660088E1A62FE8A1E4FB16F0E80FA08170FF55
:10027600AA27962FE9A1E4FB16F0E80F908171FFFB
:100286009927B62FEAA1E4FB16F0E80FB08172FFBA
:10029600BB27009B04C09695A90FB90F4FCFB69503
:0602A600AB0FB90F4BCFB6
:00000001FF
