:020000020000FC
:0400000048C071C0C3
:1000100071C0FF0FFF0FFF0F1F3F1F1F1FFFFF0FBD
:10002000FFFF0001020305070A0D13192430445B8A
:1000300081AA000001010202030304050607080A61
:100040000C0D101316191E242A3039444F5B6C8195
:1000500096AAFF1F0000FF1F0000FF1F0000FF1FE8
:10006000000001000000010000000100000001008C
:100070000000FF1FFF1FFF1F0000FF1F0100FF1FE9
:10008000001F010001000100001F0100FF1F01000F
:1000900000000027E0E6F0E06AE101936A95E9F7E5
:1000A0006FED6DBFF0E061E06ABD69E063BF67EDD1
:1000B00069BDBA98C29A62E065BF60E46BBF60EC4C
:1000C00066B9B99ABC9A61E660BF60E66CBD6FEF35
:1000D0006DBDB898C09ABB98C39A20EC10E1A02FD0
:1000E000B02F789437C0DDECD6B90BBFD0E8D093F1
:1000F0006F001895DF93DFB7DF93D0916F0088947E
:10010000B2990894D79540F0D0936F00DBE0DA9570
:10011000F1F7DCECD6B91AC0CF9314FF04C0DE307F
:1001200080F41D2F0EC0EF93E2E1E10FE491ED2387
:10013000C0E6D0E0C10FE883EF911D3009F42064E0
:100140001061CF91D0E4DABFD0E4DBBFDF91DFBF35
:10015000DF91189568B761FFFDCF68BFAEBDBBBD2D
:1001600066E0A0916000B0916100C0917000D091F4
:100170007100CA17DB0768F0CA1BDB0BC617D00774
:1001800010F0CC27DD2771E02727A617B00708F469
:10019000272BC60FD01FC0937000D0937100A09181
:1001A0006200B0916300C0917200D0917300CA17D1
:1001B000DB0768F0CA1BDB0BC617D00710F0CC2793
:1001C000DD2772E02727A617B00708F4272BC60FF4
:1001D000D01FC0937200D0937300A0916400B091BF
:1001E0006500C0917400D0917500CA17DB0768F0F4
:1001F000CA1BDB0BC617D00710F0CC27DD2774E035
:100200002727A617B00708F4272BC60FD01FC093C7
:100210007400D093750026FF0CC02F7B00937800EC
:100220000093790050916D00550F550FE3E5E50FF0
:100230004491A0916B00B0916C00C0917800D09176
:100240007900809176009091770060916600660F4A
:1002500076E0361768F0332783FBE0F9E8279795B7
:10026000879527FB97F9E0FB27F9277C80FD28631A
:100270003395CA17DB0768F0CC27DD27E2E5E50FE9
:10028000E4914E0F403228F0E2E05E27E3E5E50F0F
:100290004491E9917A95E9F68093760090937700FE
:1002A000C0937800D093790070916700722B672F0C
:1002B000660F62957623E2E3E40F649182E2A62F53
:1002C000E0916800E4FB16F0E80FA49170FFAA2704
:1002D000962FE0916900E4FB16F0E80F949171FF0E
:1002E0009927B62FE0916A00E4FB16F0E80FB4916D
:1002F00072FFBB27B39B04C09695A90FB90F2ACFF5
:08030000B695AB0FB90F26CF33
:00000001FF
