:020000020000FC
:1000000041C05EC0FF0FFF0FFF0F1F3F1F1F1FFFED
:10001000FF0FFFFF000102030405080B0F151E2B45
:100020003C5578AA00010101020202030304050500
:100030000608090B0D0F1215191E242B333C4855C9
:1000400065788FAAFF1F0000FF1F0000FF1F000040
:10005000FF1F00000100000001000000010000007F
:1000600001000000FF1FFF1FFF1F0000FF1F010016
:10007000FF1F001F010001000100001F0100FF1F02
:100080000100000060E270E0E0E4F72F71936A95F0
:10009000E9F76FE56DBF60E06EBFF0E468ED6CBF3F
:1000A00076BF0A981A9AA898A99A989A089A099ACB
:1000B00061EA6EBD69E06DBD07E027EC789432C05F
:1000C000CF93DF93EF93EFB7EF93C5E1CA95F1F7C5
:1000D0000000DD27E8E0CCE2CA95F1F7D695029959
:1000E000D068EA95C1F70000CCE2CA95F1F7029B0F
:1000F00013C014FF06C0D03F10F010610DC01D2FBB
:100100000BC0E4E0E10FE081ED23C0E4D0E0C10FDB
:10011000E8831D3009F42064EF91EFBFEF91DF9188
:10012000CF9118956AB560FFFDCF6ABD662726FF9F
:1001300009C02F7B68AB69AB5DA1550F550FE5E496
:10014000E50F4081A0A1B1A1C0A3D1A3CA17DB07CD
:1001500068F0CA1BDB0BC017D60710F0CC27DD27D1
:1001600071E02727A017B60708F4272BC00FD61F6A
:10017000C0ABD1ABA2A1B3A1C2A3D3A3CA17DB0763
:1001800068F0CA1BDB0BC017D60710F0CC27DD27A1
:1001900072E02727A017B60708F4272BC00FD61F39
:1001A000C2ABD3ABA4A1B5A1C4A3D5A3CA17DB0727
:1001B00068F0CA1BDB0BC017D60710F0CC27DD2771
:1001C00074E02727A017B60708F4272BC00FD61F07
:1001D000C4ABD5ABABA1BCA1C8A3D9A386A397A33D
:1001E00066A1660F702F361768F0332783FBE0F99E
:1001F000E8279795879527FB97F9E0FB27F9277C58
:1002000080FD28633395CA17DB0768F0CC27DD270C
:10021000E4E4E50FE0814E0F403228F0E2E05E2793
:10022000E5E4E50F4081E9917A95E9F686AB97AB75
:10023000C8ABD9AB77A1722B672F660F6295762377
:10024000E4E2E40F608184E1A62FE8A1E4FB16F06C
:10025000E80FA08170FFAA27962FE9A1E4FB16F012
:10026000E80F908171FF9927B62FEAA1E4FB16F001
:10027000E80FB08172FFBB279695A90FB90FA6BDF5
:04028000B4BD50CFEA
:00000001FF
