:020000020000FC
:0200000064C0DA
:0200040098C0A2
:100048009EC0FF0FFF0FFF0F1F3F1F1F1FFFFF0F58
:10005800FFFF000102030405080B0F151E2B3C557A
:1000680078AA00010101020202030304050506083B
:10007800090B0D0F1215191E242B333C48556578B2
:100088008FAAFF1F0000FF1F0000FF1F0000FF1FB7
:100098000000010000000100000001000000010054
:1000A8000000FF1FFF1FFF1F0000FF1F0100FF1FB1
:1000B800001F010001000100001F0100FF1F0100D7
:1000C80000000027E0E0F1E06AE101936A95E9F7B2
:1000D8006FEF6DBF68E06EBFF0E052985A9A62E029
:1000E8006093690061E06DBB60E06093C50062E207
:1000F8006093C40062E06093C00060E96093C1004F
:1001080066E06093C20062E064BD62E065BD65E3DD
:1001180067BD239A539A63EA6093B00061E06093E5
:10012800B10020EC10E1A02FB02F789447C0CF93F6
:10013800DF93DFB7DF93C8E8D0E8C150F1F7CBE52C
:100148004A990894D795C8F7CA95F1F714FF04C0DF
:10015800D03180F41D2F0EC0EF93EAE4E10FE49153
:10016800ED23C0E0D1E0C10FE883EF911D3009F421
:1001780020641061DF91DFBFDF91CF911895CF9395
:10018800DF93DFB7DF93D091C60014FF04C0D031EE
:1001980080F41D2F0EC0EF93EAE4E10FE491ED2304
:1001A800C0E0D1E0C10FE883EF911D3009F420646D
:1001B8001061DF91DFBFDF91CF91189565B360FFC4
:1001C800FDCF65BBA093B300B093B40066E0A091E7
:1001D8000001B0910101C0911001D0911101CA171D
:1001E800DB0768F0CA1BDB0BC617D00710F0CC275B
:1001F800DD2771E02727A617B00708F4272BC60FBD
:10020800D01FC0931001D0931101A0910201B091A9
:100218000301C0911201D0911301CA17DB0768F0DE
:10022800CA1BDB0BC617D00710F0CC27DD2772E0FE
:100238002727A617B00708F4272BC60FD01FC0938F
:100248001201D0931301A0910401B0910501C0914E
:100258001401D0911501CA17DB0768F0CA1BDB0B24
:10026800C617D00710F0CC27DD2774E02727A6177C
:10027800B00708F4272BC60FD01FC0931401D093E2
:10028800150126FF0CC02F7B00931801009319015C
:1002980050910D01550F550FEBE8E50F4491A091D2
:1002A8000B01B0910C01C0911801D09119018091F6
:1002B80016019091170160910601660F76E03617D6
:1002C80068F0332783FBE0F9E8279795879527FBA4
:1002D80097F9E0FB27F9277C80FD28633395CA1737
:1002E800DB0768F0CC27DD27EAE8E50FE4914E0F3D
:1002F800403228F0E2E05E27EBE8E50F4491E9910F
:100308007A95E9F68093160190931701C093180126
:10031800D093190170910701722B672F660F6295B0
:1003280076238AE5EAE6E40F6491A62FE0910801B6
:10033800E4FB16F0E80FA49170FFAA27962FE0912E
:100348000901E4FB16F0E80F949171FF9927B62F85
:10035800E0910A01E4FB16F0E80FB49172FFBB27A5
:080368009695A90FB90F2ACFE9
:00000001FF
