:020000020000FC
:020000006AC0D4
:0200040002C137
:02001400D3C057
:0200480029C1CC
:10005400E9C0FF0FFF0FFF0F1F3F1F1F1FFFFF0F01
:10006400FFFF0001020305070A0D13192430445B46
:1000740081AA000001010202030304050607080A1D
:100084000C0D101316191E242A3039444F5B6C8151
:1000940096AAFF1F0000FF1F0000FF1F0000FF1FA4
:1000A4000000010000000100000001000000010048
:1000B4000000FF1FFF1FFF1F0000FF1F0100FF1FA5
:1000C400001F010001000100001F0100FF1F0100CB
:1000D40000000027E0E0F1E06AE101936A95E9F7A6
:1000E4006FEF6DBF68E06EBFF0E052985A9A64E01B
:1000F40060936D0064E060936800C0E8D0E06D2F09
:100104006C0F6093660075D0A551B14008F4DC0F04
:10011400C695A9F78FEF9FEFDA95C3E0D0936600F9
:1001240068D0A551B14030F4662777276A1B7B0B52
:10013400A62FB72FA817B90718F48A2F9B2FED2FD6
:10014400D395CA9559F7E09366000093680000932D
:100154006D00409A389A52985A9A62E06093690006
:1001640061E06DBB60EC60937A0060E06093C50071
:1001740061E26093C40062E06093C00060E9609350
:10018400C10066E06093C20061E064BD69E065BDE2
:1001940067ED67BD239A539A63EA6093B00061E008
:1001A4006093B1002098289A24982C9A20EC1EEF92
:1001B400A02FB02F789496C04A9908C00093850068
:1001C4000093840061E06093810012C00093810079
:1001D400772371F08F939F93809184009091850091
:1001E400A817B90710F0A82FB92F7A959F918F916E
:1001F4001895AFEFBFEF70E14A9BFECF7894772359
:10020400F1F7F89408954098DF93DFB7DF93DDECBE
:10021400D0937A000DBBD0E8D0930F01DF91DFBFFC
:10022400DF911895DF93DFB7DF93D0910F018894A6
:10023400309A4A990894D79548F0D0930F01D8E0A2
:10024400DA95F1F7DCECD0937A0022C01E3058F036
:10025400DE3030F0DE3FB8F011E0189BD1271D2FBF
:1002640010FD1D2F10C0CF93EF93E6E5E10FE4914D
:10027400ED23C0E0D1E0C10FE883EF91CF911D30B1
:1002840009F420641FEFD1E0DCBBD1E0DDBB409A70
:10029400DF91DFBFDF911895DF93DFB7DF93D09154
:1002A400C6001E3058F0DE3030F0DE3FB8F011E00A
:1002B400189BD1271D2F10FD1D2F10C0CF93EF9336
:1002C400E6E5E10FE491ED23C0E0D1E0C10FE8835E
:1002D400EF91CF911D3009F420641FEFDF91DFBF50
:1002E400DF91189565B360FFFDCF65BBA093B300A4
:1002F400B093B40066E0A0910001B0910101C091F7
:100304001001D0911101CA17DB0768F0CA1BDB0B7F
:10031400C617D00710F0CC27DD2771E02727A617D2
:10032400B00708F4272BC60FD01FC0931001D09339
:100334001101A0910201B0910301C0911201D09169
:100344001301CA17DB0768F0CA1BDB0BC617D007FB
:1003540010F0CC27DD2772E02727A617B00708F492
:10036400272BC60FD01FC0931201D0931301A09165
:100374000401B0910501C0911401D0911501CA176F
:10038400DB0768F0CA1BDB0BC617D00710F0CC27BD
:10039400DD2774E02727A617B00708F4272BC60F1C
:1003A400D01FC0931401D093150126FF0CC02F7BDE
:1003B400009318010093190150910D01550F550F29
:1003C400E7E9E50F4491A0910B01B0910C01C091B4
:1003D4001801D09119018091160190911701609133
:1003E4000601660F76E0361768F0332783FBE0F9E1
:1003F400E8279795879527FB97F9E0FB27F9277C52
:1004040080FD28633395CA17DB0768F0CC27DD2706
:10041400E6E9E50FE4914E0F403228F0E2E05E2772
:10042400E7E9E50F4491E9917A95E9F6809316019D
:1004340090931701C0931801D0931901709107018B
:10044400722B672F660F62957623E6E7E40F6491BB
:1004540086E6A62FE0910801E4FB16F0E80FA491CC
:1004640070FFAA27962FE0910901E4FB16F0E80F2C
:10047400949171FF9927B62FE0910A01E4FB16F0DD
:10048400E80FB49172FFBB271C9B04C09695A90F7B
:0C049400B90F28CFB695AB0FB90F24CFDD
:00000001FF
