:020000020000FC
:1000000041C05FC0FF0FFF0FFF0F1F3F1F1F1FFFEC
:10001000FF0FFFFF000102030405080B0F151E2B45
:100020003C5578AA00010101020202030304050500
:100030000608090B0D0F1215191E242B333C4855C9
:1000400065788FAAFF1F0000FF1F0000FF1F000040
:10005000FF1F00000100000001000000010000007F
:1000600001000000FF1FFF1FFF1F0000FF1F010016
:10007000FF1F001F010001000100001F0100FF1F02
:100080000100000077276AE1E0E6F72F71936A9597
:10009000E9F76FE56DBF62E06EBFF0E0BA98C29A13
:1000A00062E065BF60E46BBFB89AB99A63EA6ABD63
:1000B00061E063BF07E020EC10E1A72FB72F789431
:1000C00028C0CF93DF93DFB7DF93C2E4D0E8C150FD
:1000D000F1F7CCE2B2990894D795C8F7CA95F1F731
:1000E00014FF04C0D03180F41D2F0EC0EF93E4E064
:1000F000E10FE491ED23C0E6D0E0C10FE883EF917A
:100100001D3009F420641061DF91DFBFDF91CF91D2
:10011000189568B761FFFDCF68BF6627A9BDB8BD58
:1001200026FF0CC02F7B609378006093790050917C
:100130006D00550F550FE5E4E50F4491A091600067
:10014000B0916100C0917000D0917100CA17DB07B7
:1001500068F0CA1BDB0BC017D60710F0CC27DD27D1
:1001600071E02727A017B60708F4272BC00FD61F6A
:10017000C0937000D0937100A0916200B0916300B1
:10018000C0917200D0917300CA17DB0768F0CA1BD8
:10019000DB0BC017D60710F0CC27DD2772E027272E
:1001A000A017B60708F4272BC00FD61FC093720004
:1001B000D0937300A0916400B0916500C091740069
:1001C000D0917500CA17DB0768F0CA1BDB0BC0179C
:1001D000D60710F0CC27DD2774E02727A017B60735
:1001E00008F4272BC00FD61FC0937400D09375005E
:1001F000A0916B00B0916C00C0917800D091790013
:10020000809176009091770060916600660F702F64
:10021000361768F0332783FBE0F9E8279795879531
:1002200027FB97F9E0FB27F9277C80FD28633395AE
:10023000CA17DB0768F0CC27DD27E4E4E50FE4917B
:100240004E0F403228F0E2E05E27E5E4E50F4491EE
:10025000E9917A95E9F68093760090937700C093C0
:100260007800D093790070916700722B672F660F2A
:1002700062957623E4E2E40F649184E1A62FE09195
:100280006800E4FB16F0E80FA49170FFAA27962FF0
:10029000E0916900E4FB16F0E80F949171FF992753
:1002A000B62FE0916A00E4FB16F0E80FB49172FFFC
:0A02B000BB279695A90FB90F2CCFBC
:00000001FF
